{
  "_format": "hh-sol-artifact-1",
  "contractName": "Twitter",
  "sourceName": "contracts/Twitter.sol",
  "abi": [
    {
      "inputs": [
        {
          "internalType": "string",
          "name": "mes",
          "type": "string"
        }
      ],
      "name": "add",
      "outputs": [],
      "stateMutability": "nonpayable",
      "type": "function"
    },
    {
      "inputs": [
        {
          "internalType": "address",
          "name": "ad",
          "type": "address"
        }
      ],
      "name": "get",
      "outputs": [
        {
          "components": [
            {
              "internalType": "string",
              "name": "message",
              "type": "string"
            },
            {
              "internalType": "uint256",
              "name": "no_of_like",
              "type": "uint256"
            },
            {
              "internalType": "address",
              "name": "user",
              "type": "address"
            }
          ],
          "internalType": "struct Twitter.tweet[]",
          "name": "",
          "type": "tuple[]"
        }
      ],
      "stateMutability": "view",
      "type": "function"
    },
    {
      "inputs": [],
      "name": "sayhi",
      "outputs": [
        {
          "internalType": "string",
          "name": "",
          "type": "string"
        }
      ],
      "stateMutability": "pure",
      "type": "function"
    }
  ],
  "bytecode": "0x6080604052348015600f57600080fd5b50610b108061001f6000396000f3fe608060405234801561001057600080fd5b50600436106100415760003560e01c8063b0c8f9dc14610046578063bc9c707d14610062578063c2bc2efc14610080575b600080fd5b610060600480360381019061005b91906104e1565b6100b0565b005b61006a6101bb565b60405161007791906105a9565b60405180910390f35b61009a60048036038101906100959190610629565b6101f8565b6040516100a791906107da565b60405180910390f35b60006040518060600160405280838152602001600081526020013373ffffffffffffffffffffffffffffffffffffffff1681525090506000803373ffffffffffffffffffffffffffffffffffffffff1673ffffffffffffffffffffffffffffffffffffffff16815260200190815260200160002081908060018154018082558091505060019003906000526020600020906003020160009091909190915060008201518160000190816101639190610a08565b506020820151816001015560408201518160020160006101000a81548173ffffffffffffffffffffffffffffffffffffffff021916908373ffffffffffffffffffffffffffffffffffffffff16021790555050505050565b60606040518060400160405280600581526020017f68656c6c6f000000000000000000000000000000000000000000000000000000815250905090565b60606000808373ffffffffffffffffffffffffffffffffffffffff1673ffffffffffffffffffffffffffffffffffffffff168152602001908152602001600020805480602002602001604051908101604052809291908181526020016000905b8282101561037c578382906000526020600020906003020160405180606001604052908160008201805461028b9061082b565b80601f01602080910402602001604051908101604052809291908181526020018280546102b79061082b565b80156103045780601f106102d957610100808354040283529160200191610304565b820191906000526020600020905b8154815290600101906020018083116102e757829003601f168201915b50505050508152602001600182015481526020016002820160009054906101000a900473ffffffffffffffffffffffffffffffffffffffff1673ffffffffffffffffffffffffffffffffffffffff1673ffffffffffffffffffffffffffffffffffffffff168152505081526020019060010190610258565b505050509050919050565b6000604051905090565b600080fd5b600080fd5b600080fd5b600080fd5b6000601f19601f8301169050919050565b7f4e487b7100000000000000000000000000000000000000000000000000000000600052604160045260246000fd5b6103ee826103a5565b810181811067ffffffffffffffff8211171561040d5761040c6103b6565b5b80604052505050565b6000610420610387565b905061042c82826103e5565b919050565b600067ffffffffffffffff82111561044c5761044b6103b6565b5b610455826103a5565b9050602081019050919050565b82818337600083830152505050565b600061048461047f84610431565b610416565b9050828152602081018484840111156104a05761049f6103a0565b5b6104ab848285610462565b509392505050565b600082601f8301126104c8576104c761039b565b5b81356104d8848260208601610471565b91505092915050565b6000602082840312156104f7576104f6610391565b5b600082013567ffffffffffffffff81111561051557610514610396565b5b610521848285016104b3565b91505092915050565b600081519050919050565b600082825260208201905092915050565b60005b83811015610564578082015181840152602081019050610549565b60008484015250505050565b600061057b8261052a565b6105858185610535565b9350610595818560208601610546565b61059e816103a5565b840191505092915050565b600060208201905081810360008301526105c38184610570565b905092915050565b600073ffffffffffffffffffffffffffffffffffffffff82169050919050565b60006105f6826105cb565b9050919050565b610606816105eb565b811461061157600080fd5b50565b600081359050610623816105fd565b92915050565b60006020828403121561063f5761063e610391565b5b600061064d84828501610614565b91505092915050565b600081519050919050565b600082825260208201905092915050565b6000819050602082019050919050565b600082825260208201905092915050565b600061069e8261052a565b6106a88185610682565b93506106b8818560208601610546565b6106c1816103a5565b840191505092915050565b6000819050919050565b6106df816106cc565b82525050565b6106ee816105eb565b82525050565b600060608301600083015184820360008601526107118282610693565b915050602083015161072660208601826106d6565b50604083015161073960408601826106e5565b508091505092915050565b600061075083836106f4565b905092915050565b6000602082019050919050565b600061077082610656565b61077a8185610661565b93508360208202850161078c85610672565b8060005b858110156107c857848403895281516107a98582610744565b94506107b483610758565b925060208a01995050600181019050610790565b50829750879550505050505092915050565b600060208201905081810360008301526107f48184610765565b905092915050565b7f4e487b7100000000000000000000000000000000000000000000000000000000600052602260045260246000fd5b6000600282049050600182168061084357607f821691505b602082108103610856576108556107fc565b5b50919050565b60008190508160005260206000209050919050565b60006020601f8301049050919050565b600082821b905092915050565b6000600883026108be7fffffffffffffffffffffffffffffffffffffffffffffffffffffffffffffffff82610881565b6108c88683610881565b95508019841693508086168417925050509392505050565b6000819050919050565b60006109056109006108fb846106cc565b6108e0565b6106cc565b9050919050565b6000819050919050565b61091f836108ea565b61093361092b8261090c565b84845461088e565b825550505050565b600090565b61094861093b565b610953818484610916565b505050565b5b818110156109775761096c600082610940565b600181019050610959565b5050565b601f8211156109bc5761098d8161085c565b61099684610871565b810160208510156109a5578190505b6109b96109b185610871565b830182610958565b50505b505050565b600082821c905092915050565b60006109df600019846008026109c1565b1980831691505092915050565b60006109f883836109ce565b9150826002028217905092915050565b610a118261052a565b67ffffffffffffffff811115610a2a57610a296103b6565b5b610a34825461082b565b610a3f82828561097b565b600060209050601f831160018114610a725760008415610a60578287015190505b610a6a85826109ec565b865550610ad2565b601f198416610a808661085c565b60005b82811015610aa857848901518255600182019150602085019450602081019050610a83565b86831015610ac55784890151610ac1601f8916826109ce565b8355505b6001600288020188555050505b50505050505056fea26469706673582212201dc08281f9ae4427827f6f63996ec4c826f8467a36622d490823bd09be35622364736f6c634300081c0033",
  "linkReferences": {},
  "deployedLinkReferences": {}
}